{
  "_format": "hh-sol-artifact-1",
  "contractName": "Voting",
  "sourceName": "contracts/Voting.sol",
  "abi": [
    {
      "inputs": [],
      "stateMutability": "nonpayable",
      "type": "constructor"
    },
    {
      "inputs": [
        {
          "internalType": "string",
          "name": "candidate",
          "type": "string"
        }
      ],
      "name": "getVotes",
      "outputs": [
        {
          "internalType": "uint256",
          "name": "",
          "type": "uint256"
        }
      ],
      "stateMutability": "view",
      "type": "function"
    },
    {
      "inputs": [],
      "name": "owner",
      "outputs": [
        {
          "internalType": "address",
          "name": "",
          "type": "address"
        }
      ],
      "stateMutability": "view",
      "type": "function"
    },
    {
      "inputs": [
        {
          "internalType": "string",
          "name": "candidate",
          "type": "string"
        }
      ],
      "name": "vote",
      "outputs": [],
      "stateMutability": "nonpayable",
      "type": "function"
    },
    {
      "inputs": [
        {
          "internalType": "string",
          "name": "",
          "type": "string"
        }
      ],
      "name": "votes",
      "outputs": [
        {
          "internalType": "uint256",
          "name": "",
          "type": "uint256"
        }
      ],
      "stateMutability": "view",
      "type": "function"
    }
  ],
  "bytecode": "0x608060405234801561001057600080fd5b5033600160006101000a81548173ffffffffffffffffffffffffffffffffffffffff021916908373ffffffffffffffffffffffffffffffffffffffff1602179055506104f3806100616000396000f3fe608060405234801561001057600080fd5b506004361061004c5760003560e01c8063805265e5146100515780638da5cb5b14610081578063b99ef1fa1461009f578063fc36e15b146100cf575b600080fd5b61006b600480360381019061006691906102f9565b6100eb565b604051610078919061035b565b60405180910390f35b610089610112565b60405161009691906103b7565b60405180910390f35b6100b960048036038101906100b491906102f9565b610138565b6040516100c6919061035b565b60405180910390f35b6100e960048036038101906100e491906102f9565b610166565b005b600080826040516100fc9190610443565b9081526020016040518091039020549050919050565b600160009054906101000a900473ffffffffffffffffffffffffffffffffffffffff1681565b6000818051602081018201805184825260208301602085012081835280955050505050506000915090505481565b60016000826040516101789190610443565b908152602001604051809103902060008282546101959190610489565b9250508190555050565b6000604051905090565b600080fd5b600080fd5b600080fd5b600080fd5b6000601f19601f8301169050919050565b7f4e487b7100000000000000000000000000000000000000000000000000000000600052604160045260246000fd5b610206826101bd565b810181811067ffffffffffffffff82111715610225576102246101ce565b5b80604052505050565b600061023861019f565b905061024482826101fd565b919050565b600067ffffffffffffffff821115610264576102636101ce565b5b61026d826101bd565b9050602081019050919050565b82818337600083830152505050565b600061029c61029784610249565b61022e565b9050828152602081018484840111156102b8576102b76101b8565b5b6102c384828561027a565b509392505050565b600082601f8301126102e0576102df6101b3565b5b81356102f0848260208601610289565b91505092915050565b60006020828403121561030f5761030e6101a9565b5b600082013567ffffffffffffffff81111561032d5761032c6101ae565b5b610339848285016102cb565b91505092915050565b6000819050919050565b61035581610342565b82525050565b6000602082019050610370600083018461034c565b92915050565b600073ffffffffffffffffffffffffffffffffffffffff82169050919050565b60006103a182610376565b9050919050565b6103b181610396565b82525050565b60006020820190506103cc60008301846103a8565b92915050565b600081519050919050565b600081905092915050565b60005b838110156104065780820151818401526020810190506103eb565b60008484015250505050565b600061041d826103d2565b61042781856103dd565b93506104378185602086016103e8565b80840191505092915050565b600061044f8284610412565b915081905092915050565b7f4e487b7100000000000000000000000000000000000000000000000000000000600052601160045260246000fd5b600061049482610342565b915061049f83610342565b92508282019050808211156104b7576104b661045a565b5b9291505056fea2646970667358221220f2680991e488e312b643b5bd03ad87a5ea19c3db4c1de5c9da45d23eb69387a364736f6c63430008130033",
  "linkReferences": {},
  "deployedLinkReferences": {}
}